S00D0000616C61726D2E737265630A
S11300000C942A000C9447000C9447000C9447006D
S11300100C9447000C9447000C9447000C9449003E
S11300200C9447000C9447000C9447000C94470030
S11300300C9447000C9447000C9447000C94470020
S11300400C9447000C9447000C9447000C94470010
S11300500C94470011241FBECFE5D8E0DEBFCDBF0E
S113006010E0A0E6B0E0E0E1F7E002C005900D92F8
S1130070AA37B107D9F720E0AAE7B0E001C01D9282
S1130080A038B207E1F70E94D3000C9486030C94C5
S113009000001F920F920FB60F9211248F939F931B
S11300A080917E0090917F00CC974CF480917E00EB
S11300B090917F00019690937F0080937E008091C1
S11300C07E0090917F00CC9799F480917C00909170
S11300D07D00CC974CF480917C0090917D0001963A
S11300E090937D0080937C0010927F0010927E009C
S11300F080917C0090917D00CC9799F480917A0056
S113010090917B0048974CF480917A0090917B0009
S1130110019690937B0080937A0010927D00109258
S11301207C0080917A0090917B00489721F4109292
S11301307B0010927A009F918F910F900FBE0F90C9
S11301401F90189588BB82B38F7B82BB82B3806279
S113015082BB86E690E20197F1F7000082B38F7DBF
S113016082BB8FEF88BB089588BB82B3806482BB57
S113017082B3806282BB86E690E20197F1F70000C9
S113018082B38F7D82BB8FEF88BB0895CF93DF93BB
S1130190EC0103C021960E94B40088818111FACF3A
S11301A0DF91CF910895CF93DF93CDB7DEB72C972E
S11301B00FB6F894DEBF0FBECDBF80EC8ABB8FEFC5
S11301C087BB81BB8EB58D608EBD80E39AE29BBDFB
S11301D08ABD789489B7806189BF81E00E94A200BA
S11301E02FEF8FEA91E0215080409040E1F700C06A
S11301F0000088E30E94A2002FEF8FEA91E02150D3
S113020080409040E1F700C000008CE00E94A20012
S11302102FEF8FEA91E0215080409040E1F700C039
S11302200000E12CF12CC12CD12C80917A0090910A
S11302307B000AE010E0B8010E942903CB014AE0E8
S1130240BE016B5F7F4F0E945103CE0105960E9451
S1130250C60080917A0090917B00B8010E94290326
S11302604AE0BE016B5F7F4F0E945103CE010596A9
S11302700E94C60087E790E00E94C60083E80E94BF
S1130280A20080917C0090917D00B8010E94290316
S1130290CB014AE0BE016D5F7F4F0E945103CE0146
S11302A003960E94C60080917C0090917D00B80165
S11302B00E9429034AE0BE016D5F7F4F0E945103F3
S11302C0CE0103960E94C60085E80E94A20087E73B
S11302D090E00E94C60086E80E94A20080917E0001
S11302E090917F00B8010E942903CB014AE0BE012E
S11302F06F5F7F4F0E945103CE0101960E94C6009A
S113030080917E0090917F00B8010E9429034AE009
S1130310BE016F5F7F4F0E945103CE0101960E9480
S1130320C600CD9B26C080E690E00E94C6004091A6
S11303307A0050917B0020917C0030917D0091E007
S1130340E416F50609F090E081E0C216D30609F040
S113035080E0892320917E0030917F0091E0232B5F
S113036009F090E0882329F0992319F08BB3806871
S11303708BBBCD9907C089E690E00E94C6008BB381
S11303808F778BBB80EC0E94A20082E790E00E94F2
S1130390C60087EC0E94A2000AE010E0C701B80181
S11303A00E9429039B015C014AE0BE01655F7F4F07
S11303B0C9010E945103CE010B960E94C6004AE077
S11303C0BE01655F7F4FC5010E945103CE010B96AC
S11303D00E94C60089EC0E94A20087E790E00E9478
S11303E0C6008AEC0E94A200C601B8010E9429033B
S11303F09B018C014AE0BE01675F7F4FC9010E94E7
S11304005103CE0109960E94C6004AE0BE01675F0F
S11304107F4FC8010E945103CE0109960E94C60075
S11304208CEC0E94A20087E790E00E94C6008DEC4D
S11304300E94A2004AE0BE01695F7F4F80E090E025
S11304400E945103CE0107960E94C6004AE0BE01F5
S1130450695F7F4F80E090E00E945103CE010796D0
S11304600E94C60080E80E94A200CC9B91C0C8995B
S113047038C080917C0090917D00CC978CF4809161
S11304807C0090917D00019690937D0080937C0088
S11304902CEC8CE697E0215080409040E1F700C0BE
S11304A080917C0090917D00CC97D9F480917A0062
S11304B090917B0048974CF480917A0090917B0056
S11304C0019690937B0080937A0010927D001092A5
S11304D07C002CEC8CE697E0215080409040E1F7C2
S11304E000C0C99918C080917C0090917D001816B5
S11304F019068CF480917C0090917D000197909373
S11305007D0080937C002CEC8CE697E021508040A9
S11305109040E1F700C0CA9921C080917A0090917F
S11305207B0048974CF480917A0090917B0001966F
S113053090937B0080937A002CEC8CE697E021501A
S113054080409040E1F700C080917A0090917B0058
S1130550489721F410927B0010927A00CB9918C02E
S113056080917A0090917B00181619068CF4809182
S11305707A0090917B00019790937B0080937A009E
S11305802CEC8CE697E0215080409040E1F700C0CD
S1130590CC994BCEC89924C02CE3C216D1045CF488
S11305A08FEFC81AD80A9CEC2CE687E091502040C3
S11305B08040E1F700C09CE3C916D10489F428E126
S11305C0E216F1041CF48FEFE81AF80A9CEC2CE60E
S11305D087E0915020408040E1F700C0C12CD12C2D
S11305E0C9990EC01C141D045CF491E0C91AD10809
S11305F02CEC8CE697E0215080409040E1F700C05D
S1130600CA9915C028E1E216F1041CF48FEFE81A28
S1130610F80A9CEC2CE687E0915020408040E1F7FA
S113062000C098E1E916F10411F4E12CF12CCB9906
S1130630FCCD1E141F040CF0F8CD21E0E21AF108E1
S11306408CEC9CE627E0815090402040E1F700C00C
S1130650ECCD97FB072E16F4009407D077FD09D054
S11306600E943D0307FC05D03EF4909581959F4F71
S11306700895709561957F4F0895AA1BBB1B51E1A6
S113068007C0AA1FBB1FA617B70710F0A61BB70BFE
S1130690881F991F5A95A9F780959095BC01CD01A3
S11306A00895BB274A3031F4992322F4BDE2909592
S11306B081959F4F0C945D03BB27FB015527AA2707
S11306C0880F991FAA1FA41710F0A41B83955051DB
S11306D0B9F7A05DAA3308F0A95DA193009779F753
S11306E0B111B1931192CB010C947603DC01FC019E
S11306F0672F71917723E1F7329704C07C916D9352
S113070070836291AE17BF07C8F30895F894FFCFC2
S113071020414C4D3A4F4E200020414C4D3A4F461B
S10D07204600414C41524D3A0000DE
S9030000FC
